:020000040801F1
:10200000C00A0020E5330108630C0308630C0308D1
:10201000091F0308630C0308630C0308630C03081F
:10202000630C0308630C0308630C0308630C0308C8
:10203000630C0308CCC70308ED0A0308630C03080C
:10204000630C0308630C0308630C0308630C0308A8
:10205000630C0308630C0308630C0308630C030898
:10206000630C0308630C0308630C0308630C030888
:10207000630C0308630C0308630C0308630C030878
:10208000630C0308630C0308630C0308630C030868
:10209000630C0308630C0308630C0308630C030858
:1020A000630C0308630C0308630C0308630C030848
:1020B000630C03084DEB0208E1F5020835B803088C
:1020C00031B8030881ED020841B8030839B80308A4
:1020D000B9F502083DB8030821F602088DF602089A
:1020E000630C0308630C0308630C0308630C030808
:1020F000051F0308630C0308630C0308630C030843
:10210000630C0308630C0308630C0308630C0308E7
:10211000630C0308630C0308630C0308630C0308D7
:10212000630C0308630C0308630C0308630C0308C7
:10213000630C0308630C0308630C0308630C0308B7
:10214000630C0308630C0308630C0308992003085D
:10215000E9D30208630C0308C7B40308CDB403082D
:10216000630C0308630C0308630C0308630C030887
:10217000013800D0FCE77047002370B5404C05469D
:102180008AB0E36318B1008823600CF0B9FC3D48C5
:1021900028F08CFE3C4E3D4B304633603C4B736028
:1021A00023F025FE0021304616F014FC32A3D3E9BB
:1021B0000023A062C4E9062323F024FED4E9062309
:1021C00019431043C4E90601CDE900014FF0FF3384
:1021D0004FF0FF32A06A28F0B6FE02224FF0FF3126
:1021E000A06A28F0B5FE01200CF0E4F94FF400736A
:1021F00000222849A06A28F0FCFEB0F5007F38D103
:1022000000239422CDE9073309933C23CDE903321F
:1022100005939623A06A03A9069316F0F9FC35B33B
:10222000287C0CF077FE0546F0B9A06A28F0D0FFB4
:102230000CF01EFE0CF0A0F920B14FF480700021CC
:1022400009F0B8F80CF0A8F920B14FF400600021B3
:1022500009F0B0F823F0A8FE012016F00FFC0E4A9A
:102260000E49A06A23F0C1FD28460AB070BDFF20C8
:10227000D7E70725F8E700BF0DD50155200000007E
:10228000700F0020690345EC3820002039E4010874
:1022900048200020201E0020935D0308D35D030822
:1022A0000348044B834202D0034B03B118477047E5
:1022B000E80E0020E80E002000000000064B074951
:1022C000C91A891048BF0131491003D0044B0BB122
:1022D00001481847704700BFE80E0020E80E0020B4
:1022E0000000000010B5064C237843B9FFF7D8FF73
:1022F000044B13B10448AFF300800123237010BDD9
:1023000038280020000000002021040808B5054BF3
:102310001BB105490548AFF30080BDE80840FFF751
:10232000CDBF00BF00000000E01100202021040804
:10233000A3F5803A704700BF174B002B08BF134B23
:102340009D46FFF7F5FF00218B460F461348144AC0
:10235000121A29F0C9FA0E4B002B00D098470D4BEA
:10236000002B00D098470020002104000D000D48EC
:10237000002802D00C48AFF300801DF0A9FC20001B
:1023800029001EF0A7FB1DF0CBFB00BF00000800DA
:102390000000000000000000C00A0020E80E00203D
:1023A0005C29002000000000000000000A4B30B54E
:1023B000D3E903240023C0F387009A4202D16FF0CF
:1023C000060005E014F82350854202D100200B607E
:1023D00030BD0133F1E700BFF81100200D4B30B5DF
:1023E0005A69DC685D681444A5420ED91C698008EE
:1023F000251F1D6104F8040C54F8040C013261F32C
:102400001F2044F8040C5A6130BD6FF003029A613A
:10241000FAE700BFF8110020094B10B5D9685A69D6
:102420005C680A44944295BF6FF003029A689A610F
:1024300042F8210082BFDA680132DA6010BD00BFC5
:10244000F8110020F7B5274F04463B780E46012BC4
:1024500026D1B0F5085F04D36FF00403BB6103B06D
:10246000F0BD01A9FFF7A2FFA50505F0FE4526F086
:102470007F431D4345F0004568B9019A3B6953F815
:10248000221066F31F2143F82210284603B0BDE84E
:10249000F040FFF7C1BF31462046FFF79FFFF4E74A
:1024A00000F0AAFC20201EF0C9F920461EF0A8F971
:1024B00000F0AAFC00F0A0FC2D201EF0BFF942F2B3
:1024C0001403A4F58054A4B29C4207D830461EF0F1
:1024D000A7F903B0BDE8F04000F096BCB0B21EF022
:1024E0008FF9F6E7F811002037B50F4D04462B7829
:1024F000012B14D101A9FFF759FF48B120461EF066
:10250000A8F901462046FFF769FF084603B030BD31
:102510002B69019A53F82210C1F31721F5E703B094
:10252000BDE830401EF095B9F811002030B5002408
:102530009DB070221449684629F0E0F9134B6D46AE
:10254000C3E90544DC601C7000F05EFC6968288803
:102550000134FFF777FF0E2C05F10805F6D140F2A4
:102560000440FFF7C1FFA0F5AA43013B012B04D8AB
:102570000122074B1A701DB030BDB0F5AA4FFAD139
:102580000022034BF6E700BF0CC40308F81100203B
:10259000392800200122014B1A7070473A28002088
:1025A00038B5154D154CD5E900231A4320D005F058
:1025B000C3FDD5E90023801A05F044FE2060104ACF
:1025C000138801339BB213800E4A136801331360E2
:1025D0000D4A137813B90D4B1B781BB10C490B68CE
:1025E00001330B600120BDE8384010700FF070BC63
:1025F00000232360E3E700BFF00E002064120020F8
:10260000DC2700207C1200203B2800203D280020F1
:102610001812002008B54FF40050FFF765FF20F4B2
:1026200004114FF40050FFF70DFF00214FF4065046
:10263000FFF708FF42F22810FFF756FF40F00201B3
:1026400042F22810FFF7FEFE42F2EC00FFF74CFFCB
:1026500040F0020142F2EC00FFF7F4FE04481EF0E5
:102660001DFA1EF020FA0022024B1A7008BD00BFAE
:10267000E5470A003E280020054B1878054B00F07E
:102680000F001B7803F00F0343EA0010704700BFF0
:102690004228002041280020012330B5764C91B01B
:1026A0000020236000F0C8FB0223236000F0BCFB85
:1026B0000023724A0093009B934240F2D58000F0C1
:1026C000ABFB00236E4A0193019B934240F2D08002
:1026D00003232360FFF72AFF4FF40050FFF704FFA6
:1026E00040F400114FF40050FFF7ACFE4FF40650D9
:1026F000FFF7FAFE40F010014FF40650FFF7A2FE7C
:1027000042F22810FFF7F0FE20F0020141F0010133
:1027100042F22810FFF796FE42F22010FFF7E4FE87
:1027200020F47F6121F00F0141F4D36141F00601F3
:1027300042F22010FFF786FE42F22410FFF7D4FE8B
:1027400040F0100142F22410FFF77CFE42F2E40058
:10275000FFF7CAFE20F0140141F4806142F2E40068
:10276000FFF770FE42F2EC00FFF7BEFE20F0020120
:1027700042F2EC00FFF766FEC8201EF0A5F9102417
:10278000404D40F20440FFF7AFFE80B228802B8816
:1027900003F47F43B3F5AA4F06D06420013C1EF03A
:1027A00093F914F0FF04ECD11622374B01240025D5
:1027B0001A6003231A22CDE90634CDE90B350893BC
:1027C000052305A8CDE90223CDE909558DF814406C
:1027D0000D94ADF838508DF83C4004941EF0F4F898
:1027E00020461EF0ECF842F2F010FFF77DFE40EAC2
:1027F000040142F2F010FFF725FE244942F28C302A
:10280000FFF720FE4FF40650FFF76EFE40EA04018A
:102810004FF40650FFF716FE214628461EF06CF8CE
:102820000AA81EF07AF802A81EF06CF820461EF0E6
:10283000A0F84FF40050FFF757FE40F480314FF4FA
:102840000050FFF7FFFD4FF4FA501EF03DF9042051
:102850001EF004F92246042128461EF0E7F820461F
:102860001EF09AF811B030BD009B0133009322E7AF
:10287000019B0133019327E7981200203F0D0300CD
:102880001FA10700E2270020941200200F3D5F00E7
:102890002DE9F04FA64B87B01B78002B00F0448148
:1028A000A44D95F80090B9F1000F40F03D81A24F82
:1028B0003B78002B00F03881012387F800902B70C3
:1028C00005F03AFC9D4E0446D6E9000303438846D2
:1028D000DFF8D8A25ED1CAF800909949994A0B68EE
:1028E0001068C6E900481B1A9748DFF8C4820360E5
:1028F0000B68964E1360964ADFF8B8921378DFF8AB
:10290000B8B201331370B8F8003001339BB2A8F8A5
:102910000030FFF7B1FE8F4B3071187005F00CFCE2
:102920000290FFF7B9FE01238B4A137000239A46E9
:10293000C9F80030D9F8002000200132C9F8002081
:102940001EF0A2F8854B0421186000201EF08BF8C1
:10295000431E58425841CBF80000DBF80020FAB97A
:102960001EF05DF8E0B9BAF1050F40F096801EF058
:1029700013F804201EF072F84FF4FA701EF0A4F859
:1029800001201EF009F84FF47A701EF09DF84FF008
:10299000060ACFE7201A05F055FCCAF800009CE7AC
:1029A00042F26C00FFF7A0FDDFF81092C9F80000BA
:1029B00004201EF053F80122694B9FED6A7A1A60D9
:1029C000D9F800309BB207EE903AF8EE677A77EECE
:1029D000C77A9FED657A67EE877A9FED647A67EE36
:1029E000677ADFF8DC91C9ED007A05F0A5FB029B60
:1029F000C01A05F027FC5E4B0521186099ED000A0E
:102A000052481EF05DF85B4B5B491A881A88B8F88B
:102A1000003092B242EA0342584B95F800C0188841
:102A2000574B1B8809681B0489B241EA006155486D
:102A300003F47F0319433B78077853489B070068EA
:102A400043EACC73003818BF012043EA477343EAD6
:102A500000734E480768B7F5803F2CBF4FF6FF70F4
:102A600000684B4F38BF80B2012A43EA000338BFE9
:102A70000122012938BF0121012B38BF0123C6F8EB
:102A80000920C6F81130C6F80D10424E3878337858
:102A9000BBB10FF07BFA98B1FEE703904FF47A7068
:102AA0001EF012F80AF101035FFA83FABAF1140F6B
:102AB000039A7FF43FAF2A4BDFED377A1A6090E735
:102AC000307000211F22214B38780FF071FA014637
:102AD00000B1FEE738780FF081FA00B1FEE701237C
:102AE000337005F029FB001B05F0ACFB2B4B186085
:102AF00005F022FB2A4BC3E900014FF4967005A9AB
:102B000005F03AFB034638B9CDE90000254A05999E
:102B100025481FF00DFA00B1FEE70F4B1B780BB1F3
:102B2000FFF778FD00232B7007B0BDE8F08F00BFE2
:102B30003F2800203D2800203B280020E80E0020F0
:102B40007C1200201412002078120020F80C0020C3
:102B500042280020402800203E280020901200201B
:102B6000841200200000004730969C3F000000388F
:102B700070120020E227002060120020DC270020D5
:102B8000DE2700203A2800201812002068120020BA
:102B9000170D00203C2800200000000074120020C7
:102BA000F80E0020952501081C1200206C12002050
:102BB000E0270020801200208C12002088120020C4
:102BC0005C12002007B50C4A138801339BB21380B6
:102BD00005F0B2FA094B0A4AC3E9000100234FF499
:102BE0007A71CDE90033074805F0E4FA00B1FEE759
:102BF00003B05DF804FB00BFDE270020F00E0020CC
:102C0000A12501083C120020204A38B51368013381
:102C100013601F4B1A78002A33D000251D7005F071
:102C20008BFA1C491C4CD1E900231A430ED0D1E980
:102C30000023801A05F006FB2060184C237843B16E
:102C4000174B18780FF0A2F910B1FEE72560F4E7F2
:102C50002070144C2078FF2805D00FF0D3F900B174
:102C6000FEE7FF232370104B1B780BB1FFF7D2FC5C
:102C700000220E4B1A700E4B1B7813B101200FF07F
:102C800027F9BDE83840FFF703BE00BF60120020FF
:102C90003A280020F80E0020681200203C2800206E
:102CA000170D0020F60C00203E2800203D280020B3
:102CB0003B280020036837B523F47F432A4A23F0DA
:102CC00007039342044638D002F13E7202F54032C7
:102CD00093422AD002F17D42934243D101200FF06A
:102CE00009FA6FF09501214B214A6FF0C7000FF0F0
:102CF00013FA00200FF0FEF901221E4D1E4B28464C
:102D00001A700FF009F9044600B1FEE701461F22D0
:102D10001A4B28780FF04CF92022009423461146D4
:102D200028780FF011F9E8B1FEE74368DB0719D501
:102D300003B0BDE83040FFF7ABBD114B0021187860
:102D40000FF0A0F901200FF0B1F900B1FEE70D4B33
:102D5000207B1870637BFF2B04D103B0BDE83040AB
:102D60000FF0B6B903B030BDA0000600D827002090
:102D7000DA270020170D00203F280020F80C002043
:102D8000F70C0020F60C0020F0B50024154B164D72
:102D90001A60164F164B944200D1F0BD154ED3F871
:102DA00048C01CF0400F0ED1013EF8D2065D5E64B3
:102DB000104ED3F848C01CF0800F0FD1013EF8D25E
:102DC000DE6BF6B207E0002EF0D12E6801362E60E1
:102DD0009E6C3E60FF260E550134DCE7002EEFD1DD
:102DE000F3E700BF9C120020A4120020A0120020D4
:102DF00000000A5040420F000122024BC3F8A020FD
:102E0000704700BF00E003500122024BC3F8A0202E
:102E1000704700BF00D003504FF48072014BC3F8DD
:102E2000A020704700D003504FF48072014BC3F8CC
:102E3000A020704700E0035030B5012189B03A204E
:102E400000F0DEFE012304220021022002F05CF9E2
:102E5000012304220821022002F056F90023042253
:102E60000321022002F050F902210023084601222A
:102E700002F04AF9002304220121022002F044F961
:102E8000214D12214FF4A06001F078FB03AC012129
:102E9000572000F0B5FE0FCD0FC41C4B03A90593BE
:102EA0001B4B1C481C4C079302F00CF81B4B0222D6
:102EB000C4F8CC344FF00213C4F8C434A3F5803303
:102EC000C4F8C8341C231046C4F8B43405210123C7
:102ED00002F01AF901250522002311460220CDE94E
:102EE000005502F0B7F84FF000720D4BC3F8802187
:102EF0001A604FF48073002004F58054C4F8A05089
:102F0000C4F8A03009B030BD78C5030800093D0001
:102F1000C00A002000000A5000C003500200030055
:102F200000E100E07FB50368244A23F47F4323F0E7
:102F3000070393423ED1002108221220204B0FF0BC
:102F400073F8014600B1FEE7032214201D4B0FF079
:102F50006BF8014600B1FEE7052216201A4B0FF070
:102F600063F800B1FEE70DF1070102A80FF0FCF8CD
:102F7000014600B1FEE7BDF80C3008225BBAADF89F
:102F800010309DF80B3018208DF81230FF238DF88B
:102F90001330FE238DF814309DF80A308DF815306B
:102FA000BDF808305BBAADF8163004AB0FF03CF852
:102FB00000B1FEE707B05DF804FB00BFA000010010
:102FC0008CC5030895C5030899C5030810B5274C9F
:102FD00001F058F801F0B0FA236F23F0070343F033
:102FE000030323671DF0B0FE214B00209B6ADB0129
:102FF0005EBF4FF480321F4B9A62D4F8203123F029
:10300000070343F00203C4F82031D4F8283123F039
:10301000070343F00203C4F82831D4F8403123F009
:10302000030343F00203C4F84031D4F8603123F0C5
:10303000030343F00203C4F86031D4F8403223F0B4
:10304000030343F00203C4F84032D4F8003223F003
:10305000070343F00203C4F80032D4F8083223F027
:10306000070343F00203C4F8083210BD008000508B
:103070000040005A0060005A08B5064B834207D151
:10308000054B1B7823B1C8B20EF0BCFF00B1FEE7C0
:1030900008BD00BFA81200204328002030B500253D
:1030A0000368344A23F47F4323F0070385B0934237
:1030B00004460295ADF80C5035D002F580229342BB
:1030C0000CD0A2F18272934251D12B4B1B78002B72
:1030D0004DD005B0BDE830401FF02BB8B0F805303A
:1030E0001B2B44D1FF2304A91A4611E903001DF04C
:1030F000A2FD012814BF41F2FC151F4B4FF01B012C
:1031000008BF187005F0FC0220790EF0A3FF00B193
:10311000FEE71A4900902379194A0968194800F016
:103120006DF820B3FEE7B0F80530B7EE047A07EE8D
:10313000903AF8EE677AB0F8073067EE877A013395
:1031400007EE103AB8EEC77A67EE877AB1EE047AE6
:1031500067EE877AFAFE677AFCEEE77A17EE903A26
:10316000B3F57A7F38BF4FF47A73044A136005B021
:1031700030BD00BFA000060243280020E00A002066
:1031800079300108A812002038B505461DF0F8FD79
:1031900000230B4A14685CB1AC4206D1A96A6BB13A
:1031A00099621DF0F3FD012007E02346A46AF2E7CF
:1031B000002DF3D01DF0EAFD204638BD1160F0E788
:1031C000E012002010B5044698B104F01DFF20461F
:1031D000FFF7DAFF10B194F82C300BB9002010BDC6
:1031E0001DF0CEFD044A1368013B13601DF0CEFDB7
:1031F000F4E72220F3E700BFE41200202DE9F043BA
:1032000085B00546914698460E469DF8307009B93E
:10321000002F5CD12846FFF7D5FF0446002836D1A1
:1032200085F82C00686305F007F8864233D904F06E
:103230009DFF2146844640F2E7304FF47A72002326
:10324000E6FB0C011CF0D4FA4FF0FF3200231CF017
:10325000CFFA2B46E88611462846CDE900441D4AA0
:103260001EF0C5FE044690B9C5E9089885F82D7092
:103270002E631DF085FD184A136833B31A469B6A06
:10328000002BFBD195620023AB621DF07FFD204631
:1032900005B0BDE8F08347B12B4631462846CDE95D
:1032A00000440C4A04F086FFDCE7304603A904F032
:1032B00063FF04460028EAD12B462846CDE9007773
:1032C000044A03991EF06FFECCE71560DBE721246A
:1032D000DDE700BFDD320108E012002091F82C305C
:1032E00013B50C4683B98B8ECA8E93420ED243B966
:1032F000CDE9003320460B46104A4FF0FF311EF057
:1033000036FEA38E0133A38602B010BD52B191F8F0
:103310002D307BB101230093D1E908232046096BAE
:10332000FFF76CFF0123064A84F82C301368013341
:103330001360E9E7084604F067FEF3E7DD320108B1
:10334000E41200202DE9F041144E336823B34FF00E
:103350000008134F1DF014FD05463C6824B92846AB
:10336000BDE8F0411DF012BD94F82C3093B13368E4
:1033700084F82C80013B336094F82D3013B920463B
:10338000FFF702FF28461DF001FDD4E90831204671
:103390009847DFE7A46AE1E7BDE8F081E412002086
:1033A000E0120020034B1B68002B14BF04200120F7
:1033B000704700BFE4120020024B1868B0FA80F09A
:1033C00040097047E41200200348044A0449121AD5
:1033D00092101DF047BC00BF5C2504085C25040862
:1033E0005C29002008B500F02FF8FFF7EDFF124B25
:1033F00012498B4212D30020114B12498B4218D331
:10340000FEF79AFF186850F82240586840F82240AA
:10341000013298688242F5D30C33EAE70022F8E7DC
:103420001C6844F8220001325C68A242F8D30833D9
:10343000E4E70022F8E700BF28210408342104084B
:1034400034210408342104084FF480414FF0FF3048
:10345000114B124A10B59A60D3F8882042F47002DA
:10346000C3F888200E4A91660E4901F50052106695
:103470000D4850660220C3F8D000BFF34F8FBFF352
:103480006F8F01244FF440330848C0F88041D36067
:1034900004600B6110BD00BF00ED00E000200108DA
:1034A0000090005000800044F7FF370000E100E08A
:1034B000014B1868704700BFE80A0020084B1B6FDB
:1034C00003F00703022B04D0032B05D0012B05D0FA
:1034D000FEE7044B18687047034BFBE7034870474F
:1034E00000800050E80A0020F00A0020002D310181
:1034F00008B5FFF7E3FF054B1B6FC3F3033301333D
:10350000B0FBF3F0024B186008BD00BF0080005014
:10351000E40A00200048704700B4C404014B186856
:10352000704700BFF00A0020054B1860054B1B6F69
:1035300003F00703032B01D1FFF7DABF704700BF89
:10354000F00A00200080005000487047002D310133
:103550004FF0B4439868C0F304400C280AD8DFE861
:1035600000F00B0909090909072119091B1D1F0092
:103570000F487047002070479B6803F04073B3F119
:10358000807F11D0B3F1007F10D00A4A002B08BF12
:103590001046704708487047084870470848704709
:1035A00008487047084870470848704708487047FF
:1035B000405DC60000093D00C0EA210180BA8C01CF
:1035C0000048E801005A62020024F40080841E00D2
:1035D00040420F00014B1868704700BFEC0A002002
:1035E0004FF000639B6A10B503F17842B2F5903F4B
:1035F00011D21968094A91420DD1094C227812F072
:10360000FD0F01D0002010BDDB6998470028FAD1DA
:1036100001232370F6E74FF48170F4E707B0CD5E25
:10362000442800204FF00053074A1A60BFF34F8F21
:103630000649074BCA6802F4E0621343CB60BFF34C
:103640004F8F00BFFDE700BF02020FF000ED00E06A
:103650000400FA050346054A0549106803448B42F5
:103660008CBF4FF0FF301360704700BFF40A00209A
:1036700000000420024B1968024B186814F0BCBD0E
:10368000F80A0020180B002070B594002246054669
:103690000E4628F045FE431C0AD058B92246314652
:1036A000284628F0F7F80028034808BF002070BD1E
:1036B0000248FCE70248FAE710E000F021E000F0E1
:1036C00024E000F010B5044628F026FE431C10D07C
:1036D00088B901F0CFFD234620F003002044984232
:1036E00001D1002010BD53F8042B0132F7D003485C
:1036F000F8E70348F6E70348F4E700BF0EE000F000
:1037000021E000F024E000F008B51DF032FB014B91
:10371000186008BDD8190020014B18681DF02DBB9A
:10372000D8190020044BD3F88420D206FBD4D3F858
:103730008400C0F3811070470040005038B5104B32
:103740000546D3F880300C4603F00303022B0BD060
:10375000032B0DD0012B0FD1FFF7B0FE0E2305B1C7
:10376000286004B1236038BDFFF7F2FE0723F6E7B7
:10377000FFF79EFE0623F2E700231846EFE700BF9F
:103780000080005038B5184B0546D3F820010C4690
:1037900000F00700062823D8DFE800F0040A0E1620
:1037A000121A1E00012305B1286004B1236038BD40
:1037B000FFF77EFE0523F6E7FFF7B0FE0323F2E7EF
:1037C000FFF7C6FE0723EEE7FFF7BEFE0223EAE798
:1037D000FFF76EFE0623E6E7FFF7A0FE0423E2E70D
:1037E00000231846DFE700BF0080005038B5174BB4
:1037F0000546D3F828310C4603F00703013B052B9F
:1038000020D8DFE803F003131B0F0B17FFF750FE60
:10381000052305B1286004B1236038BDFFF748FED9
:103820000623F6E7FFF794FE0723F2E7FFF776FE9D
:103830000323EEE7FFF772FE0423EAE7FFF784FEB7
:103840000223E6E700231846E3E700BF00800050AC
:1038500073B50D460021114B0191D3F88041064606
:1038600004F00304022C13D0032C0CD0012C13D130
:1038700001A8FFF787FF10240EB1019B336005B14B
:103880002C6002B070BDFFF763FE07240190F3E7E0
:10389000FFF75AFE0190EFE70C46EDE7008000507D
:1038A000002337B50193164B0546D3F820320C465A
:1038B00003F00703042B21D8DFE803F0030B1116F4
:1038C0001B0001230DB1019A2A6004B1236003B0EB
:1038D00030BD002101A8FFF789FF1223F2E7FFF7AF
:1038E00037FE07230190EDE71DF0C9F90A23019087
:1038F000E8E7FFF76FFE09230190E3E70023E1E724
:103900000080005038B5104B0546D3F840310C46C6
:1039100003F00303022B0BD0032B0DD0012B0FD18F
:103920001DF0ADF90A2305B1286004B1236038BD4C
:10393000FFF750FE0923F6E71DF0A4F90C23F2E788
:1039400001230020EFE700BF00800050002337B5BF
:103950000193164B0546D3F860320C4603F007037B
:10396000013B032B1FD8DFE803F0020E19140021DE
:1039700001A8FFF707FF10230DB1019A2A6004B1D7
:10398000236003B030BD002101A8FFF7BBFF112366
:10399000F2E7FFF7DDFD07230190EDE7FFF7D4FD28
:1039A00002230190E8E70023E6E700BF0080005013
:1039B000002337B50193164B0546D3F894320C46D5
:1039C00003F00703013B032B1FD8DFE803F0020ECF
:1039D0001914002101A8FFF7D5FE10230DB1019A9B
:1039E0002A6004B1236003B030BD002101A8FFF7B5
:1039F00089FF1123F2E7FFF7ABFD07230190EDE705
:103A0000FFF7A2FD02230190E8E70023E6E700BFED
:103A10000080005038B5144B0546D3F800020C4620
:103A200000F0070004281BD8DFE800F003090D119F
:103A30001500012305B1286004B1236038BD1DF0D5
:103A40001EF90A23F6E7FFF7C5FD0923F2E71DF08B
:103A500019F90C23EEE7FFF74BFD0F23800AE9E786
:103A600000231846E6E700BF0080005038B5144B2D
:103A70000546D3F808020C4600F0070004281BD8BE
:103A8000DFE800F003090D111500012305B12860DE
:103A900004B1236038BD1DF0F2F80A23F6E7FFF702
:103AA00099FD0923F2E71DF0EDF80C23EEE7FFF78F
:103AB0001FFD0F23800AE9E700231846E6E700BF51
:103AC0000080005038B5104B0546D3F840320C4604
:103AD00003F00303022B0BD0032B0DD0012B0FD1CE
:103AE0001DF0CDF80A2305B1286004B1236038BD6C
:103AF000FFF770FD0923F6E71DF0C4F80C23F2E789
:103B000001230020EFE700BF0080005038B5104BC4
:103B10000546D3F860310C4603F00303022B0BD0AB
:103B2000032B0DD0012B0FD11DF0A9F80A2305B1ED
:103B3000286004B1236038BDFFF74CFD0923F6E788
:103B40001DF0A0F80C23F2E701230020EFE700BFEF
:103B500000800050B0F5207F1FD009D8B0F5007F5D
:103B600015D003D868B1B0F5C07F0AD000200CE0B2
:103B7000B0F5607FFAD10B4BD3F88000C0F3011091
:103B800003E0084B186FC0F3033001307047054B5A
:103B9000D3F89000C0F30460F7E7024B186FC0F34E
:103BA0008020F2E70080005002464FF48030104B36
:103BB00010B598660020FFF7CDFF504341F67132F3
:103BC0000C4BDC69DA635A6804F4803422F4401246
:103BD00059B90949884294BF0020012000050243D9
:103BE0005A600CB10022DA6310BD0449F2E700BF4D
:103BF0000090005000000350005A6202002D310175
:103C0000430905D0012B0CD0022B084B18BF002311
:103C100000F01F0039B103F58053012282401A6081
:103C20007047034BF4E703F50053F6E76880005054
:103C3000648000501FB5002180280446CDE90011A2
:103C400000F0A58035D85E2846D85E2844D8DFE845
:103C500000F0A2434343434343434343434343436B
:103C60004343434343434343434343434343434324
:103C70004343A2AAA2AABABABABABAAAC44DDA717E
:103C80004DAAAAAA4343434343434343AAAAAA795A
:103C9000E4AA43434343434343434343434343BA75
:103CA000A2A2A2DF4D4DE9885EBF4343434343993F
:103CB000A200B0F5B06F00F090802DD8B0F5207F55
:103CC00071D00CD8B0F5C07F65D0B0F5007F65D05D
:103CD000B0F5807F00F08680009804B010BDB0F58C
:103CE000607F6BD00DD8B0F5407FF5D1FFF700FCB9
:103CF00002464FF42070FFF72DFFB2FBF0F252089E
:103D00005AE0B0F5806F5ED0B0F5A06FE4D100212D
:103D10006846FFF7C5FDDFE7B0F5106F78D016D81D
:103D2000B0F5E06F79D00AD8B0F5C06F6BD0B0F5C0
:103D3000D06FD1D100216846FFF76CFECCE7B0F51B
:103D4000F06FC9D100216846FFF7E0FEC4E7B0F587
:103D5000406F3DD013D8B0F5206F63D0B0F5286F19
:103D6000BAD10021324B0391D3F8703203F0030330
:103D7000012B02D103A8FFF7C5FD039B3CE0B0F582
:103D8000486FA9D100216846FFF712FEA4E7FFF7AC
:103D900095FB0090A0E7FFF7ABFBFAE7FFF78EFB80
:103DA0000246204604E0FFF7A3FB02464FF42070D2
:103DB000FFF7D0FEB2FBF0F200928DE701A8FFF70B
:103DC000BDFC019AEDE700216846FFF7DBFC83E7C5
:103DD00000216846FFF70AFD7EE700216846FFF7ED
:103DE00037FD79E74FF0E02302911B695B0705D5AA
:103DF000FFF77EFB0290029B00936DE703A902A8E8
:103E0000FFF780FDF7E700216846FFF77BFD63E7DA
:103E100000216846FFF72AFE5EE700216846FFF7AB
:103E200051FE59E700216846FFF790FD54E700BFB7
:103E30000080005008B58020FFF7FCFE034B98423D
:103E40009EBF4FF48032024B1A6708BD005A6202CF
:103E500000A000501FB503460020B3F5807F0190FD
:103E600000F0C18064D85D2B55D84C2B07D82D2B82
:103E700048D8232B2CD8019805B05DF804FB4D3BA6
:103E8000102BF8D801A252F823F000BFDD3F010843
:103E9000773E0108773E0108773E0108933F01080D
:103EA000773E0108773E010861400108B13F0108F3
:103EB000573F010857400108773E0108773E010847
:103EC000773E0108773E0108773E01086B40010804
:103ED000243B092BCFD801A252F823F0DD3F010883
:103EE000DD3F0108DD3F0108DD3F0108DD3F01083E
:103EF000773E0108D33F0108773E0108733F010870
:103F0000134001083D2B7FD03E2BB4D1002001A9E6
:103F1000FFF7D8FDAFE7802BADD1594B1B6F03F0F6
:103F20000703013B032BA6D8DFE803F0514E858D34
:103F3000B3F5F06F68D021D8B3F5B06F49D00FD882
:103F4000B3F5607F00F0838095D3B3F5806F45D0E3
:103F5000B3F5A06F8FD1002001A9FFF7A1FC8AE77C
:103F6000B3F5D06F55D0B3F5E06FCFD0B3F5C06FD8
:103F700081D1002001A9FFF7C5FC7CE7B3F5206FD4
:103F80006ED00BD8B3F5086F48D0B3F5106F7FF43F
:103F900072AF002001A9FFF769FD6CE7B3F5406F30
:103FA00059D0B3F5486F60D0B3F5286F7FF463AF95
:103FB000334BD3F8703203F00303012B5AD0022B9A
:103FC0000CBF1523002300E00523019353E70223D0
:103FD000FBE7002001A9FFF73BFC4CE7002001A90B
:103FE000FFF7D0FB47E74FF0E02302901B695B0728
:103FF00005D5FFF77DFA0D230393039BE5E703A99E
:1040000002A8FFF77FFCF8E7002001A9FFF77EFD7B
:1040100031E7002001A9FFF7FDFC2CE7184BD3F88E
:10402000003103F00303022B07D0032B09D0012B2F
:104030000BD1FFF773FA0323C7E7FFF7CBFA092386
:10404000C3E71CF01AFE0823BFE70123BDE701A95F
:10405000FFF774FB0FE7002001A9FFF7C7FB0AE792
:10406000002001A9FFF772FC05E7002001A9FFF776
:104070009FFC00E7002103A8FFF744FC1123A4E7FD
:10408000008000504FF48012034B5A664FF4803288
:10409000024B9A62704700BF009000500050005AD7
:1040A00008B5FFF7D7FE092811D00A38012802D930
:1040B0004FF6FF7008BD4FF48002064B5A6603F5B9
:1040C000D8335B6ADB07F3D54FF4FA70F2E7024BA3
:1040D0001888EFE700900050E40C002038B5044643
:1040E0008020FFF7B7FE032800F083804FF4801292
:1040F000524B4FF0A0615A6645F60E02504BC3F882
:104100008020504A91624FF4803102F580529162D2
:104110009A6DD203FCD4996D11F08041FBD1D4E9A2
:104120000002120542EA0062E07B0243207B42EA81
:104130000042607B42EA0032A07B42EA80121A61B0
:104140009869D4E90452120642EA856200F0004000
:104150000243A07EE57E0243207E42EA0042607E6A
:1041600042EA00229A611A6AE06922F00F0242EAEA
:104170008502354D00283DD11A6294F82420996AB1
:1041800094F82000D200294042EA40120A4394F8F1
:10419000211042EA011242F480329A622B49284AE5
:1041A000936D31EA0303FBD14FF0807125488162A2
:1041B0001369A56823F4700343EA055313614FF0B4
:1041C0000043836194F822300BB9214B996294F833
:1041D00023303BB94FF480321D4B9A62184A936DDD
:1041E0005B00FCD494F825301BB1154B194AC3F879
:1041F000802038BD024342F0080202281A6208D12A
:1042000019614FF40852996113484FF47F411CF033
:1042100079FD0B4994F822308A6A94F820001B0635
:104220002A4043EA4013134394F8242043EAC2038C
:1042300094F8232043EA02438B62D3E700900050B6
:104240000040005A0050005AC7FFFEFE0300010064
:104250000060005AF1A7FFFF3440005A70B5194CB6
:10426000FF28A66A2BD8A36D4FF0807113F4803F0E
:1042700018BF4FF48032144B18BF9A629962134AE8
:10428000A36992F9005023F47F03054423F47F438C
:1042900043EA002385F3080543EA0543A361324658
:1042A0000B481CF02FFDA36DDB0301D4002070BD73
:1042B00032464FF4803106481CF024FDF6E72120F9
:1042C000F5E700BF0040005A0050005A180D0020CA
:1042D0002840005A014B93F900007047180D002048
:1042E0004FF4803311481249826A8B62836D03F068
:1042F0000303032BFAD14FF080730E488B620B4BF4
:10430000996D30EA0101FBD1012009490865996DD9
:104310008907FCD4054B996D8807FCD5996D8907F1
:10432000FCD5054905481CF0EDBC00BF0040005A13
:104330000050005A03000100000001012840005A0B
:10434000F0B5D0E901434FF400061A4A41780578E8
:1043500056664FF4D156022702F5B8325662164E11
:104360004F2977604FF0010728BF4F2106F580568F
:1043700077601669F603FCD441EA052151611B01FF
:10438000417B43EA04230B43017B43EA41039360EF
:10439000C37B817B1B0143EA4113417C0B43017CBE
:1043A00043EA41035360837C13B16FF4D1535362EA
:1043B000F0BD00BF0090005000100250014B18806B
:1043C000704700BFE40C0020014B1880704700BF0D
:1043D000E20C00204FF4800208B5184B5A66022305
:1043E000174A5360936813F48033FBD1012822D11C
:1043F000FFF794F8134B984215D003F5122303F5F9
:10440000F863984213D0104B00EB8002400AB3FBD4
:10441000F0F3520A0A49CA620B6301234B6200227D
:10442000074B5A6008BD45F67A13084AF2E745F68D
:104430001A03074AEEE75362F1E700BF009000500D
:104440000040025000F0490264666666D8B8050074
:10445000BBCF0500B0F5207F10B50C465DD008D865
:10446000B0F5007F4ED003D8C0B1B0F5C07F15D0F5
:1044700010BDB0F5607FFBD12C4B4C1ED3F8FC2057
:104480002B4912F0807F4FEA041427D1D1F88030F5
:1044900023F030032343C1F88030E9E71CF041FCEE
:1044A0001CF04DFC4FF48031224B214A1967136FE9
:1044B000013C23F4704343EA04331367FFF718F811
:1044C0000446FFF72FF9C0F1020120461CF031FC31
:1044D00000F042F8BDE81040FFF7ACBCD3F8FC2078
:1044E00022F08072C3F8FC20D1F8802022F0300244
:1044F0002243C1F88020D3F8FC2042F08072C3F838
:10450000FC20B5E70A4A4C1ED2F8903023F0F8534D
:1045100043EA0463C2F89030AAE7054A4C1E136FC1
:1045200023F4806343EA84231367A1E700ED00E0EE
:10453000008000500090005008B50121022000F0DA
:10454000D5FA1CF0EEFB1CF0FAFB4FF48032014B65
:104550001A6708BD0090005008B54FF4C070FFF70F
:1045600069FBBDE808400449884294BF012102214B
:104570004FF42070FFF76EBF80F0FA02B0F5807F35
:10458000F8B50C4600F053816BD85D285DD84C28F7
:1045900004D82D2844D8232828D8F8BD4D38102811
:1045A000FBD801A353F820F00F4801089B450108F0
:1045B0009B4501089B450108FF4601089B450108F2
:1045C0009B450108C5490108374701088F46010886
:1045D000A54901089B4501089B4501089B45010829
:1045E0009B4501089B450108E54901082438092835
:1045F000D3D801A353F820F00F4801080F48010851
:104600000F4801080F4801080F4801089B450108A1
:10461000EF4701089B450108C5460108DF4801082E
:104620003D2800F04C813E28B7D1093C032C8CBFBB
:104630000021B34BB34A98BF195DD2F8403223F042
:1046400003030B43C2F84032A7E78028A5D18B1E95
:10465000062B00F2C980DFE803F0C4B2C77FC7C7EA
:10466000C100B0F5F06F00F02A813BD8B0F5B06F13
:1046700000F0BD801BD8B0F5607F00F06D818CD359
:10468000B0F5806F00F0C380B0F5A06F85D1073C16
:104690000B2C8CBF00219C4B9A4A98BF195DD2F815
:1046A000203223F007030B43C2F8203275E7B0F540
:1046B000D06F00F01481B0F5E06FB6D0B0F5C06FE8
:1046C0007FF46BAF093C032C8CBF00218F4B8D4ACC
:1046D00098BF195DD2F8403123F003030B43C2F8B1
:1046E00040315AE7B0F5206F00F06C8117D8B0F573
:1046F000086F00F02181B0F5106F7FF44EAF093CD8
:10470000062C8CBF0021824B7E4A98BF195DD2F8DF
:10471000083223F007030B43C2F808323DE7B0F537
:10472000406F00F03F81B0F5486F00F05B81B0F55D
:10473000286F7FF432AF112C00F06481A4F11503CF
:104740005C425C4164006F4AD2F8703223F003038C
:104750002343C2F8703220E7002502264FF4803749
:104760000121022000F0C2F91CF0DBFA1CF0E7FA8C
:10477000684B644A1F67136F23F0070333431367C3
:10478000FEF7B6FE0646FEF7CDFFC0F10201304649
:104790001CF0CFFA0121002000F0E8F9FFF7DCFE61
:1047A000FFF748FB002D7FF4F8AE032C7FF4F5AE45
:1047B000594B5A4A9F62936D5C00FCD4EDE64FF46E
:1047C0008012544B0E465A664FF48032534B9D6A0A
:1047D00003F58053C5F300659A62BFE70025042600
:1047E000BCE700250126B9E700252E46B6E7023CC6
:1047F0000E2C8CBF00214A4B424A98BF195DD2F85B
:10480000803123F003030B43C2F88031C5E6023C3C
:10481000052C8CBF0021434B3A4A98BF195DD2F852
:10482000203123F007030B43C2F82031B5E6A1F194
:104830000904082C3FF6B1AE01A353F824F000BFE1
:1048400065480108654801089B450108654801085D
:10485000934801089B4501089B4501089B450108B9
:10486000654801084FF48032264B2F49586E03F5F6
:1048700080535A664B6AC00343F001034B625CBF2E
:104880002A4B5A664FF0E022136923F004031361A8
:1048900083E64FF480321B4B2349586E03F5805357
:1048A0005A664B6A23F001034B62C1035CBF1F4B86
:1048B0005A664FF0E022136943F00403E7E7093C2E
:1048C000032C8CBF00211A4B0E4A98BF195DD2F8F9
:1048D000603123F003030B43C2F860315DE6093C0D
:1048E000062C8CBF0021134B064A98BF195DD2F8E5
:1048F000003223F007030B43C2F800324DE600BF3D
:1049000070C80308008000504DC8030870C8030831
:1049100069C80308009000500060005A0040005A27
:104920007AC8030874C8030800C0075000A00050EC
:1049300070C8030869C80308CC1E062C8CBF002170
:10494000314B324A98BF195DD2F8003123F003038E
:104950000B43C2F8003120E62D49063CD1F8FC207B
:1049600012F080721EBFD1F8FC3023F08073C1F8C2
:10497000FC30082C8CBF0020264B244998BF185DC2
:10498000D1F8803023F003030343C1F88030002ABC
:104990003FF403AE1E4AD2F8FC3043F08073C2F8F5
:1049A000FC30FAE5023C052C8CBF00211A4B174A5B
:1049B00098BF195DD2F8283123F007030B43C2F8E2
:1049C0002831EAE5023C0F2C8CBF0021134B0F4A23
:1049D00098BF195DD2F8603223F007030B43C2F889
:1049E0006032DAE5023C0F2C8CBF00210C4B074AE9
:1049F00098BF195DD2F8943223F007030B43C2F835
:104A00009432CAE501249EE662C803080080005083
:104A100000ED00E059C8030874C803083DC8030846
:104A20003DC80308034B5868C0F30800003818BF9E
:104A30000120704700ED00E0024A536B0342FCD1B5
:104A4000704700BF00400950044A4178536F23F477
:104A5000407343EA01235367704700BF0040005092
:104A60000C4A10B51369044643F00403136103F0C4
:104A70009FF81CF08EF9084B084AC3F8202430BF79
:104A80001CF088F903F0CEF81CB9BDE81040FEF721
:104A90002FBD10BD00ED00E000E003500000FF0F4F
:104AA0000A4A10B51369044643F004031361084B26
:104AB000084AC3F8202403F07BF830BF03F0B2F8B3
:104AC0001CB9BDE81040FEF713BD10BD00ED00E0BD
:104AD00000E003500000FF0F034A0179D36E23F07A
:104AE00030030B43D366704700400050F8B50446CE
:104AF0001C4BD3F88420D106FBD4D3F88430C3F305
:104B000081139C422CD0FEF7D9FC012C064602D121
:104B100021461CF00EF91CF02CF94FF00072124BDC
:104B200007465A6620461CF038F94FF480630D4D55
:104B3000621E93402B676B6E9A0103D4D5F88430C4
:104B40009B060AD538461CF018F9022C08D13046CD
:104B5000BDE8F84000211CF0ECB8D5F88430EAE755
:104B6000F8BD00BF004000500060005010B50C467A
:104B700008B9FEF7A3FC074B21461B783BB1064B57
:104B8000984204D80120BDE81040FFF7AFBF0220D3
:104B9000F9E700BF45280020005A62020278034B63
:104BA000012100201A70FFF7E1BF00BF4528002057
:104BB0004FF0004238B5244B244C5A664AF6CD33A8
:104BC000656C014605F00105236428BB0120FFF751
:104BD00033FF6368DB0715D51D4B586008461D4B36
:104BE000226BD2070CD4984208D1072415B1174B79
:104BF000194A1A6426F0BFF9204638BD0130EFE7A4
:104C00009842F2D00024F1E70132236B13F008033D
:104C100005D08A42F8D1E8E700220E49F5E78A423A
:104C2000E3D020210A4A91620121A2F5805251600D
:104C30000649084A886A800603D49342D5D00133D6
:104C4000F8E79342DDE700BF0090005000400950B4
:104C50000060095040420F003254FFFF4FF0004205
:104C600038B5164B01465A664AF6CD33144C154AF0
:104C7000656C236443780B205B0043F00103D3632E
:104C8000FFF7DAFE63688A7823F4F87343EA0213C5
:104C90006360CA784B7943EA0223A3600A798B796F
:104CA00043EA022323610878FFF782FFEB0744BF42
:104CB000054B236426F05FF9012038BD00900050B9
:104CC00000400950004000503254FFFF4FF00042B6
:104CD000124B70B55D6E03F580535A664AF6CD33BC
:104CE00004460F4980204E6C0B64FFF7A5FE0B6A4B
:104CF00023F00F030F2C94BF234343F00F030B62E9
:104D0000F30744BF074B0B64002DA2BF4FF00042D6
:104D1000054B5A6626F02FF970BD00BF0080005089
:104D2000004009503254FFFF00A000504FF00042F5
:104D3000104B70B55D6E03F580535A664AF6CD335D
:104D400004460D4980204E6C0B64FFF775FE0B6A1C
:104D500023F4F85343EA04230B62F30744BF074BE1
:104D60000B64002DA2BF4FF00042054B5A6626F09F
:104D700002F970BD00800050004009503254FFFF1E
:104D800000A0005010B51CF00DF8042300F5805170
:104D900000F500520B6113610B6113610B6113612C
:104DA0000B611361202341F2020103610023C36000
:104DB000836041614FF4A0218361836541620549AD
:104DC000C36103628362C36243630365D1640363A7
:104DD00010BD00BFFF3F0D0370B5054614460846E1
:104DE00041B9354B9D4218D0344B9D4208BF5720E6
:104DF000FEF720FFAB6813F0010F6B6830D0B0FBFB
:104E0000F4F4D80704F1FF344FEA046407D42B69A3
:104E100023F07F4323432B6170BD5620E8E7282110
:104E200028461BF0BBFFAB6C990715D1AB6CDA07BA
:104E300014D4AB6C13F0020F14BF062600262846CC
:104E40001BF0B0FF2B69314623F07F4323432B61D6
:104E5000BDE870401BF0DDBF0526F0E70926EEE750
:104E6000AB6DDB07AB6848BF640003F0E003402B89
:104E70001BD004D8DBB1202BCED1082304E0602B5B
:104E800017D0802BC8D1012363434101B1FBF3F25A
:104E90000B4B203A284603EAC20201211BF07EFF99
:104EA0002A63BDE870401BF079BF0623ECE71023AE
:104EB000EAE70423E8E700BF0000015B00000A50B6
:104EC000F8FF7F00F8B5436804460E460D691BB134
:104ED00040F6FF711BF062FF2046FFF753FF226987
:104EE000737BB17B22F087020B43134343F08003B3
:104EF00023611DBBA368F27B23F00303134343F03C
:104F00000103A3606369327B23F00F0313436361E2
:104F1000D6E901122046FFF75FFF052120461BF06E
:104F20005BFF28211BF03AFF3378A3631BF036FFA9
:104F3000A36CDB4313F4405FFAD1F8BD2369297FEA
:104F400023F0F80343EAC1132978EA7B0B4329795C
:104F500043EA4113697A43EA011343EA8213236166
:104F6000E068D5E9053720F0F0403B4320F470209D
:104F70000343287B697B43EA802343EAC133E36030
:104F8000A368F07B23F00303034343F00103A36012
:104F90006B88A06803F4C0430343A360A3686879E7
:104FA00043EA8023A360AB79EF79606A1B013F027B
:104FB00003F0700307F4E06720F4772020F4EE603C
:104FC0003B430343287A000300F4E0400343687F37
:104FD000000400F47020034363626369307B23F0B4
:104FE0000F03034363616B89A36111B3164B9C42AA
:104FF0000CD1AB7B154903F00F034B67002A87D018
:105000002B7C124A03F00F03136781E7104B9C427D
:105010007FF47EAFAB7B0D4903F00F03C1F8803006
:10502000002A3FF475AF2B7C084A03F00F03D367C7
:105030006EE7002A3FF46CAF034B9C42E0D0044B78
:105040009C42F0D064E700BF0000015B0090035079
:1050500000000A50072A2DE9F041154698464FF006
:10506000030401F003072DD89600B44000FA06F2BD
:1050700021461C481BF0D2FE21461B4807FA06F2C7
:105080001BF0CCFE194B1A499DF81800B8F1000F1F
:1050900018BF1946012303FA05F50D60154B164993
:1050A000002818BF0B461D60144B9DF81C00C3F868
:1050B0002054103103F22443002818BF0B461D6012
:1050C000BDE8F081A2F10806B600B44000FA06F28D
:1050D00021460B481BF0A2FE21460A4807FA06F2B9
:1050E000CEE700BF00C4035008C4035010D40350DF
:1050F00010E4035014E4035014D4035000E00350B0
:1051000004C403500CC403502DE9F04105460F467A
:105110001E4690464AB101233022194C8B4002FBB7
:10512000004436B304F5825423600F21072F05EBAA
:10513000450388BFA7F108044FEA0313114895BF40
:10514000BC00A40004330C3308FA04F2A140184454
:105150001BF064FEB8F1000F09D101233021084A89
:10516000BB4001FB05223EB102F582521360BDE84F
:10517000F08104F50154D7E702F50152F6E700BFCC
:1051800000C0035030C003504FF48032054B9A6684
:1051900041F6713203F51C33DA63012203F5005343
:1051A000DA6070470090005041F671320121064BE1
:1051B000DA6303F50052D1600022DA634FF48032E3
:1051C000A3F518339A667047000003500138312860
:1051D0009ABF024B185C0020704700BF89C80308C3
:1051E00038B5C2F30625044602F0070241B942EA87
:1051F000052242F440220634074B43F8242038BDF0
:10520000114628461BF019FE02462846FFF7DEFF2E
:10521000163442EA0022EFE7008003504FF4803258
:10522000064B5A6603F5E6239B69C3F38512827029
:1052300003F03F021B0B4270037070470090005058
:1052400040F6B732064B5B689BB293429FBF4FF468
:105250007A72B3FBF2F3034AD05C88BF0020704738
:105260000080E00FBBC80308014B986CD96C7047F5
:105270000080E00F0120034B9B680A3303F01F03FB
:10528000984070470080E00F034B5A68D20702D560
:10529000DA69002AF9D1704700800A50054B9A68F4
:1052A0009107FCD45A689207F9D4DA69002AF6D13A
:1052B000704700BF00800A5008B5FFF7E5FF0222E3
:1052C000014B1A6108BD00BF00800A5008B5FFF706
:1052D000E5FF0122024B03F580514A601A6108BDC7
:1052E00000800A5008B5044B5968012903D1FFF723
:1052F000E3FF024B596008BD00800A5000A00A502D
:1053000010B5064CFFF7CAFF6368012B03D1FFF706
:10531000E9FFFFF7C3FF0378E36010BD00800A5088
:10532000B8B94A680B7812B1127843EAC2034A78D6
:1053300043EA42038A6812B1127843EA82138A78F8
:1053400043EA8203CA6812B1127843EA4223014A4F
:105350009364704700800A5008B9014B5964704744
:1053600000900A5008B9014B5964704700A00A50D8
:1053700008B9014B1964704700A00A5010B9024BDC
:10538000186C70470020704700800A5048B911B16E
:10539000012903D07047044BD86C7047024B186D3D
:1053A00070470020704700BF00800A5040B911B11B
:1053B000012903D07047034BDA647047014B1A652B
:1053C000704700BF00800A5010B9024B586D7047FB
:1053D0000020704700800A5038B50446054D25F07E
:1053E000EEFD0FCC0FC594E8030085E80300002014
:1053F00038BD00BFDC19002047F6FF739A42F0B5B4
:105400006FD002296FD8394B5B5C012B6BD8384DBC
:10541000DF0005EBC30415F83330A178012B13D15D
:105420000025E078401AA84202D80844C0B2F0BD76
:10543000431B6668A0EB530336F913609642D4BF52
:105440001D4603F1FF30EEE760680028EFD0B0F9A9
:105450000040944204DBB0F902409442B8BF1446C5
:1054600083883D44FF2B19BFC8224FF0280CB0F9A8
:105470000620B0F908C0A2EB04030CBF01260026E9
:1054800093FBFCF333446E781BB29E4201DD002B8C
:1054900001DA731E1BB24FF47A7C01339BB2071DF5
:1054A0005D1E2DB24FEAC50E00EBC505EA88AD685A
:1054B0009E4214FB025222EAE27202F15C02B2FB4B
:1054C000FCF204DD37F8335001339542E8D200EBAB
:1054D0000E039888904228BF1046884238BF08467D
:1054E000A4E7FF20A3E70020A1E700BFBEC8030890
:1054F000DC1900200229F0B555D82C4B585C012846
:1055000051D82B4C04EBC00114F830004B68012833
:105510000FD1C8788C78904294BFC4EB0001C4EBE3
:105520000201001BCAB28242C8BF002233F9120036
:10553000F0BD002B37D08878904202D3B3F9020037
:10554000F6E7CC78B3F900009442F1D94C78998809
:10555000013CA1F1FF06714203F10405E4B271417F
:1055600003F10C07CEB2B44216D805EBC1014FF4DB
:105570007A756A43B1F902404968521A04EBD47152
:1055800002EB610292FBF4F29042D1DBB3F902002C
:105590009042CDDC10B2CBE737F831C04E1C9445B9
:1055A000E3D33146DEE70348C2E700BFBEC80308C5
:1055B000DC1900200080FFFF0148FFF70DBF00BF8E
:1055C000C4C8030800487047E60C00207FB51422C9
:1055D000002101A826F088F902238DF80430054B3C
:1055E00001A94FF0FF30029325F02EFD07B05DF8C2
:1055F00004FB00BF006A180008B5B0B14FF4806228
:105600000B4B9A661BF053FC4FF098435A6CD20236
:10561000FCD54FF48062586D064B10F470209A66EA
:1056200004D0BDE808401BF067BC212008BD00BFC6
:105630000090005000A000502DE9F0418CB0884649
:10564000DDE912761D460446002847D0002945D0E2
:10565000002F43D0002E41D013F00F033ED120483D
:105660002049A360002A08BF0146E361C4E9001392
:10567000404609A91BF03CFD68BB204609991BF078
:105680000DFC294620461BF009FC6946404600F007
:10569000DFFA00BB694620461BF0ECFB404603A93D
:1056A0001BF025FEB8B9204603A91BF0E3FB0697C3
:1056B0000127204645F0005506A9079708951BF0DD
:1056C000D9FB204609A909960A970B951BF0DCFB2C
:1056D0002046FFF791FF0CB0BDE8F0812120FAE7EA
:1056E00000010004000101042DE9F0418CB088465E
:1056F00016461D460446129F00284BD0002949D06B
:10570000002A47D0002F45D00B68103B102B41D802
:10571000214A22FA03F3D9073CD500231F4A8360AC
:10572000C0E90023C36109A940461BF0E1FC70BB3E
:10573000204609991BF0B2FB294620461BF0AEFB20
:105740006946404600F084FA08BB694620461BF0D3
:1057500091FB404603A91BF0CAFDC0B9204603A92E
:105760001BF088FB06960126204606A945F0005549
:10577000079608951BF07EFB094B204609A909975F
:105780000A960B931BF080FB2046FFF735FF0CB009
:10579000BDE8F0812120FAE70101010000000404C6
:1057A00010000020F0B50C4617461E46054695B081
:1057B000002874D0002972D0002A70D0002B6ED03F
:1057C000036B0F2B5BD80023364A3846C4E900230D
:1057D000A360E36111A91BF08BFC00285BD120467C
:1057E00011991BF05BFB296B20460F2984BF01F048
:1057F0000F0110311BF052FB384602A900F028FAC5
:10580000002848D1204602A91BF034FB384605A9E0
:105810001BF06DFD00283ED1204605A91BF02AFB98
:105820000122214B089509920A932B6B05F1100078
:1058300003F00F0141F000510B900F2B0C920D91D2
:105840000E900F9243F00052109226D90A9B08A99D
:1058500023F0005320460A931BF00CFB0BA92046B3
:105860001BF008FB0123119612930F4B204611A940
:1058700013931BF009FB2046FFF7BEFE0BE000F17F
:105880002003019000930122102339462046FFF7A0
:10589000D3FE002897D015B0F0BD0EA9DFE7212078
:1058A000F9E700BF00000404100000202DE9F04FCC
:1058B0009BB00C4690461F460546DDF890900028A8
:1058C00000F0B280002900F0AF80002A00F0AC8028
:1058D000002B00F0A980026B02EB09031B09B3EB5C
:1058E000121F02F00F0600F0978000234F4A8B60D2
:1058F000C1E90023CB61404617A91BF0F9FB034621
:10590000002840F0858006EB090B204617992BF004
:105910000F0A1BF0C3FA514620461BF0BFFA40465F
:1059200002A900F095F90346002871D1204602A98A
:105930001BF0A0FA404605A91BF0D9FC034600283D
:1059400066D14FF00108019005A920461BF092FA9C
:10595000374A204608A90895CDF824800A921BF002
:1059600089FA46F00051AAEB060605F1100346F04D
:1059700000560B93CDF830800D910E97CDF83C80FA
:1059800010960D99204621F000510D910BA900931E
:105990001BF070FA20460EA91BF06CFA019B244AFA
:1059A0001193AAF1100343F00053CDF848801393EC
:1059B00005F120031493CDF854801692139B2046D2
:1059C00043F080431393139B11A923F000531393C7
:1059D0001BF05AFA204614A91BF056FA144A17A9CC
:1059E00020461795CDF8608019921BF04DFA20469D
:1059F000FFF702FEAAEB0B0149440190ABEB0A0250
:105A00000098394425F07AFF019B2A6B4A442A63A7
:105A100018461BB0BDE8F08F10304A463946304476
:105A200025F06CFF0023F0E72123F1E703020004D7
:105A3000100000202DE9FF474FF000080E461746E2
:105A40000446CDF80080002859D022B90025284608
:105A500004B0BDE8F087002951D032F0030902F00C
:105A6000030A1FD04FF0E063C0E900380123019121
:105A7000C0F808800293C0F81C8049F0005301A9C7
:105A800003931BF001FA494620461BF007FA204613
:105A9000FFF7B2FD054628B14A464146304625F09B
:105AA00023FFD4E7BAF1000FD0D04FF000084FF039
:105AB000E063C4E900380123CDF804D00293114B10
:105AC000204601A9C4F80880C4F81C8003931BF089
:105AD000DBF9042120461BF0E1F92046FFF78CFD9D
:105AE000054608B13A46D8E7009A4E44EB00013526
:105AF00022FA03F3AA4506F8013BF7D1A6E72125D0
:105B0000A5E700BF04000020F0B50F4616461D466D
:105B1000044693B010B9212013B0F0BD0029FAD08B
:105B2000002AF8D0002BF6D0002331461A4638461A
:105B30001BF083FA0028EFD1304602A91BF019FAB6
:105B40000028E9D1EB68022B0AD039683F48029A55
:105B500081426B6902D01830814270D19A42DAD802
:105B60002B68002BD7D14FF060623846C4E9002380
:105B7000A360E36101A91BF0BBFA0028CCD1019915
:105B8000204621F4F06101911BF088F9694628460E
:105B90001BF0AEFA0028BFD1204600991BF07EF919
:105BA000384609A900F054F80028B5D1204609A9C3
:105BB0001BF060F938460CA91BF099FB0028ABD10B
:105BC00020460CA91BF056F9EB684BB1284606A9F4
:105BD00000F03EF800289FD1204606A91BF04AF9A4
:105BE000304603A91BF083FB002895D1B368DA0483
:105BF0000CD59B0427D50621F36932691B6801FB8C
:105C000003225B0043F0005303920593204603A94F
:105C10001BF030F928460FA91BF069FB00287FF420
:105C20007BAF20460FA91BF02FF903252046FFF775
:105C3000E3FC01287FF470AF013DF7D16CE7B3EBD3
:105C4000420F8DD267E7292066E700BF200000B031
:105C500090B189B101234B60C368013B012B08D887
:105C60008269064B1AB10A6000208B607047044AB3
:105C7000F9E74FF00053F7E72120704708000020B4
:105C800078DA030870B50E46154604468AB0002837
:105C90005BD0002959D0002A57D0012329461A4643
:105CA00030461BF0CAF900284DD1B36813F4C04F39
:105CB0004BD0AB6803F4C043B3F5005F45D1254B2F
:105CC000A060C4E90030E06107A930461BF010FA7B
:105CD000002838D1204607991BF0E0F8304601A98A
:105CE000FFF7B6FF78BB20461BF0C4F8304604A986
:105CF0001BF0FDFA38BB204604A91BF0BBF8EB688B
:105D00001BBBAB6803F4C043B3F5005F1DD169460C
:105D100028461BF059F9B0B9009B6A699A4216D31C
:105D20002A6943F0005307920122204607A90892EE
:105D3000032509931BF0A8F82046FFF75DFC012816
:105D400001D1013DF8D10AB070BD2120FBE71D2033
:105D5000F9E700BF0000010206289ABF014B185C5A
:105D60000020704780DA030830B5154B87B00293E6
:105D7000144B0390049346F611030D46059300F06F
:105D800077F91428044616D168461BF06EFC4FF0D4
:105D9000A843032202A95A6319601D619A63DA6B52
:105DA0009207FCD1142C02D168461BF06CFC00F069
:105DB00093F9044601E00028E9D0204607B030BD41
:105DC000F4190020040000202DE9F04FB1B0054681
:105DD0008C469E46E8466F4EDDF8EC90409C06F1FE
:105DE000100A474630687168083603C75645B846FA
:105DF000F7D13E9B03EB0208C8F1000A0AF00F0A34
:105E0000B9F1000F00F09D80C9F1000707F00F07FE
:105E10000121DDF8FCB044F00050C4F11006CDF8CB
:105E200010B005910690300200F4F85040F02100C7
:105E30000790B9F1000F40F08680CDF820D047F0F0
:105E40000050002D00F08480099121210A9041EA40
:105E500007210B9142F00050CDF830C03D9B08A9BE
:105E60004FEA0A2C0D910E904CF041000F901093C8
:105E7000002A75D13E9B119143F0005312933C9B35
:105E80001390149310AB1593434B444A169340F66A
:105E900011031793424B0021002D08BF134618939E
:105EA00014AB19933F4B10221A9311231B931CAB75
:105EB000184625F019FD01221D92002246F0804669
:105EC00003461E96239205B9EB46102CCDF880B000
:105ED00024AE4BD101232246002130462193229447
:105EE00025F002FD20AB002125938F4218BF3346D9
:105EF00047F0804226923A9A2CA828922993B2FA27
:105F000082F35B0949EA837310222B912A9325F0CF
:105F1000EBFCB9F1000F00D028AED04448F080432C
:105F20002CA918A82D962E93FFF71EFF30B92DB976
:105F30000346A34225D1002818BF2C2031B0BDE86C
:105F4000F08F102764E7CDF820E049F0005078E7A3
:105F5000002C3FF479AF04A9099101210A9076E75A
:105F60003E9B0CAA11924120129388E71022002137
:105F700030462193229425F0B7FC002CB2D10123A6
:105F8000B1E703F1C0026A4412F8C02C0133104398
:105F9000CFE700BF87DA0308100000209CDA03086F
:105FA000A0DA030804000020F0B5C0299FB0DDE9A5
:105FB000244557D0B1F5807F04D0802948D02920CE
:105FC0001FB0F0BD01265CB140F2344702941024AA
:105FD00003960494212401970594069502AC0AE0E7
:105FE00040F214470294102403960494212405944B
:105FF000012401970695079401251024089409951A
:106000000A9221220B950C940D92174A0AAD0E921A
:10601000164A0F95109242F611021192129313959F
:106020001494159201AA1692D3B112AB17930423BC
:1060300018931123199316AB1A901B9340F6110372
:10604000C9081C911AA806A91D93FFF78DFEB7E792
:10605000012614B94FF48267C4E74FF48667B5E7A9
:106060000EABE3E70F20ABE798DA0308100000104F
:1060700038B5164B5A6E42F004025A66D3F88022A5
:1060800042F00102C3F88022114B5B68C3F308039E
:1060900043B14FF0A842D36B13F0430FFBD114244C
:1060A000204638BD4FF0A843DC6B14F04304FBD10D
:1060B000084D2B681BB90421284602F0D5FC2B683B
:1060C000013343F000432B60EAE700BF008000503B
:1060D00000ED00E0F4190020014B00205B687047E0
:1060E00000ED00E0012300F01F02A0F506200949A1
:1060F000A0F550604009934051F820201A4341F820
:106100002020054951F8202022EA030241F82020EE
:10611000704700BF0C1A0020F81900200121A0F5DB
:1061200006230E4AA3F550635B0900F01F0081406F
:1061300052F82300014342F823100949D1E9003005
:10614000034488680344C868096903445B1802BFB4
:10615000C2E90033C2E9023313617047F819002025
:106160000C1A00202DE9F04FA9B003921D460446F9
:106170000822339ECDE90401414021FA02F34B404D
:10618000980702F1080218BF9B00202A1C44F4D192
:106190008123B4FBF3F303EBC313E41A734B04F54D
:1061A00006241B7804F55064002B3ED1FDF762FAFB
:1061B000074620B16FF0910029B0BDE8F08F01468D
:1061C000402208A825F090FB4022394618A825F067
:1061D0008BFBDFF8B481DFF8B491C3460BF10F0AF3
:1061E000CDF800A0102208A95B46D9F8000024F0E1
:1061F0008CFC0022014608F1100808AF914246D1FC
:10620000CDF800A05B461022D9F8000018A924F0B0
:1062100085FC4FF0000A834618AFD34541D1544B5B
:106220009845DAD10122514B1A704FF0810A4FF094
:106230000008DFF85CB1A4F50627A7F550635B09F9
:106240005BF8232004F01F01CA40D2073DD4494A1D
:1062500052F82330CB40DB072AD5B8F1000F08BF36
:10626000A0468123A7F6FF47B7FBF3F303EBC31365
:10627000FF1A07F50624BAF1010A04F55064DAD1D1
:10628000039BBBB1B8F1000F14D0444619E057F896
:10629000040BCDE90612FFF725FF079A0699013294
:1062A000ACE757F8040BFFF739FF0AF1010AB4E72E
:1062B000039B13B96FF08B007EE7B8F1000F18BF96
:1062C0004446349B00201C6076E7329B13B10023C8
:1062D000329A13600EB1002333601023DFF8AC90C4
:1062E00000932A4600232146D9F8000012F0F6F860
:1062F00060BB32992A68204BC9B99A4206D0214620
:10630000D9F8000012F082F90028D3D1D5E9022390
:10631000DDE90410834208BF8A42A2D1039B002B0F
:10632000CFD06B68012BCCD16FF0840044E71020F4
:1063300032999A420860E2D1002EE7D033462146D6
:10634000D9F8000018AA12F01DF948B10B4B984279
:10635000D5D00B4B9842D2D00A4B9842D6D029E7E1
:10636000329A336812689B1A3360CFE746280020C0
:1063700000710800F8190020105D175EFFDF00F0C3
:1063800011E000F0FEDF00F0006D0800180B0020A7
:106390000C1A00202DE9F04F87B0824689469846B6
:1063A0001646DDF840B02AB1002B4FD040F26C7396
:1063B0009A424ED8BBF1010F4ED8002406F11007C7
:1063C0003946012005941BF0CFFE0546002846D033
:1063D00021463A4625F088FA05ABCDE90143009401
:1063E0002B46012250464946FFF7BCFE044680B1C9
:1063F00010F18C0F08BF6FF08D043A46002128463B
:1064000025F072FA28461BF0BFFE204607B0BDE813
:10641000F08F144BC5E902A92B60C5F804B02EB16A
:106420003246414605F1100025F068FA059E0E48F7
:106430003B462A463146006811F0B8FF18B930468D
:10644000FFF750FED9E76FF09104D6E76FF08604AE
:10645000DBE76FF09104D8E76FF08504D5E76FF0C4
:106460008C04D2E7105D175E180B00202DE9F04375
:106470008DB08146DDE914780E4615461C469BB169
:10648000B8F1000F05D16FF0860630460DB0BDE8BB
:10649000F083002FF7D0B7F1005FF4D3C3F10053BE
:1064A00003F580239F42EED81022002108A825F092
:1064B0001BFA002207AB029305AB019306AB3146F2
:1064C0000093484608ABCDE90522FFF74BFE064690
:1064D0000028DAD1059BA4B1AB4215D853EA0504D4
:1064E000D1D1069B0B48C8F8004000943A46079962
:1064F00000682B4411F0F2FF002818BF6FF09106DE
:10650000C3E7AB42EDD2BEE75B1B9C4228BF1C46F3
:10651000E7E700BF180B002030B58DB00C460546EC
:106520001022002108A825F0DFF9002207AB029312
:1065300005AB019306AB21460093284608ABCDE995
:106540000522FFF70FFE0446D8B9099B012B1BD08B
:10655000079D104B2946186812F058F8B8B9012267
:10656000A5F506230C49A3F550635B0905F01F0050
:10657000824051F823004240284641F82320FFF78B
:10658000CDFD20460DB030BD6FF08404F9E76FF00B
:106590009104F6E7180B00200C1A00202DE9F04FAB
:1065A00093B00446DDE91E75DDE920689346DDE918
:1065B0001C028A46DDF8889029B96FF086042046CF
:1065C00013B0BDE8F08FBBF1000FF6D00FB9002D6E
:1065D000F3D108B9002AF0D116B9B8F1000FECD107
:1065E000B9F1000FE9D02C4A934251D12388B3F579
:1065F000105F4DD12022002102A825F075F920223C
:1066000000210AA825F070F902A81AF0A3FC10B125
:106610006FF09204D3E720465A4651460AAB00F089
:106620000FFA04460028CAD10A981BF084F80446E1
:106630000028C4D115B9C9F80050C0E7B74224D228
:106640007B199E4221D24545B7D839462A46304665
:1066500025F030F9374615F00F0AAED1CDE90076B6
:106660002B4652460AA902A8FEF7E6FF0746002875
:10667000E1D042465146304625F036F9012FC9F89F
:1066800000A0C5D16FF08B0499E74545E3D994E7A5
:106690006FF0850493E700BF004440042DE9F04704
:1066A000C2B00C4607460021154601A820229A4692
:1066B0004A9EDDF83091DDF8388125F015F9202269
:1066C000002109A825F010F92022002111A825F0A9
:1066D0000BF92022002119A825F006F900218022BB
:1066E00022A8219125F000F93CB135B12EB1B9F1C4
:1066F000000F02D0B8F1000F05D16FF086042046DC
:1067000042B0BDE8F0872188628801F4E043B3F528
:10671000804FF2D02C4B2D483B4043F01063834216
:1067200002D06FF08504EAE7D31DBAEBD30F4FEA2E
:10673000D307E2D34D9B9F423FD847F212139942B1
:10674000EFD1B2F5807FECD1214B4B980993842394
:106750000230013620F0030016937B000D960E9058
:10676000129320465246294621AE01AB159600F001
:1067700067F904460028C2D10B9B119043F40053E3
:1067800019A80B931AF0E6FBD0B911AB09AA01A91D
:1067900019A8FFF7B9F9054610B14828ADD1C0E7EF
:1067A0003A463146484625F0A9F82B46735501353F
:1067B000842DFBD1C8F80070A1E76FF089049EE733
:1067C0006FF092049BE700BF0000FFF60000020993
:1067D000200000802DE9F0410D4614461E46C2B04F
:1067E00010B96FF086000DE00029FAD0002AF8D029
:1067F000002BF6D0038803F44F42B2F5824F04D049
:106800006FF0850042B0BDE8F081DAB2122AF7D10C
:1068100023F0FF03B3F5E24F27D143883360FBB980
:10682000E3003360B3F5807FEAD100231846434983
:106830002E19214411F8014D16F8012D1043121B99
:106840000CBF4FF0FF340024B54203EA040343EACF
:106850000203EFD10028C4D0002BC2DA0020D1E718
:10686000DA1DB4EBD20FDDD0BBE7B3F5824F61D1B7
:106870000B78042BB5D120220021684625F034F88E
:1068800068461AF067FB002851D100278422394658
:106890000DEB0200209725F027F8202201234FF06E
:1068A000880839460DEB0200013C8DF88030013537
:1068B00025F01AF8202239460D9410A8E4000C9512
:1068C000640825F011F820AD2022394618A8149547
:1068D000CDF8548025F008F8E02CCDE91C58346040
:1068E00003D0B4F5807F7FF47CAF154B0734089359
:1068F00010934FF400530A934FF48043E40812932B
:1069000008AA18AB6846640010A91994FFF7FCF8B0
:1069100033680733DB085A0033B10021531E013BB3
:10692000297005F10105FAD2002897D059E76FF0D8
:10693000920067E76FF0960064E700BFA4DA0308EF
:1069400020000080F8B5134642880C460732072A1B
:106950004FEAD20101D0A1426DD146680588C768CF
:1069600020221846002124F0BFFF360A034626B134
:10697000012E11D06FF08B00F8BD002C5BD041F2DE
:106980000102954205D0B5F5885F02D0B5F5905F5C
:106990001BD15C600020EFE7C660002C4BD041F2B9
:1069A000010295420BD15C60B90707F001021FD4C8
:1069B000002AEFD19A6842F080729A60EAE7B5F552
:1069C000885FF0D0B5F5905FEDD0B5F5105F0AD1D6
:1069D000182C03D0202C01D0102C2CD1C3E900445A
:1069E000002ED7D0E0E705F44F42B2F5824F02D037
:1069F0006FF08500C0E7EAB2122AF9D1202CF7D156
:106A00000E4A25F0FF05B5F5E24F1A600CD0B5F53A
:106A1000824F10D14FF4005217F4705F09D017F471
:106A2000864F04D09A60E3E74FF48042F4E742F4E3
:106A300080629A60D4E76FF086009DE720000080B6
:106A40002DE9F041174600221C4643688CB01B0A12
:106A500080460D46009204D0012B56D06FF08B007B
:106A60008EE0008820F0FF03B3F5824F15D1B8F80F
:106A700002200732D20800921AF069FE002800F0C6
:106A8000E1800B78042B05D1013FB7EB420F05F1F4
:106A9000010503D06FF0860072E00097009E224649
:106AA00031464046FFF74EFF002869D1FA1CC4E981
:106AB000030522F003026261002E00F0A480202270
:106AC000002101A824F010FF3146404601AAFFF73B
:106AD00039FF002840F097802368019A9A4240F0DD
:106AE00092806368029A9A4240F08D80A368039A6C
:106AF0009A4240F08880A369079A9A4240F08380C6
:106B0000E369089A9A423BD07DE0032FC2D90B7803
:106B1000012B40F09A80497800294BD0F739082999
:106B20009CD801A353F821F0916B01084D6B01082B
:106B30005D6A0108876B01085D6A0108AB6B01089B
:106B40005D6A01089B6B0108A36B01084FF41056A6
:106B5000F8253F4F1C22002102A824F0C5FE032384
:106B60000197CDE90435039601AA09AD134603CB7D
:106B7000AB42206061601A4604F10804F6D100209F
:106B80000CB0BDE8F08110274FF08076FA25E1E7E0
:106B900020274FF00076F725DCE7FE252C4F2D4E01
:106BA000D8E7FF252A4F2C4ED4E74FF41056FC258A
:106BB000274FCFE72B2F7FF66DAF2022204624F002
:106BC00093FE05F110032361AB070DD001AB05F176
:106BD00028061A4628686968083503C2B542134674
:106BE000F7D1286801AD10606B68103F2360AB6877
:106BF00069466360EB682046A36001236761E36038
:106C00001AF0B7F928B120220021204624F06CFEAA
:106C100040E7B8F80030009E03F44F42B2F5824FCF
:106C20000ED1DAB2122A0BD123F0FF03B3F5824F53
:106C300006D1730062691C339A42BFF43DAFE2E7AC
:106C40003346F7E76FF085009AE76FF0910097E71A
:106C50002000008000440002004400032DE9F04FB2
:106C60008FB0DDF8608081460C4692469B461A9FA5
:106C7000B8F1000F05D16FF0860420460FB0BDE8D3
:106C8000F08F002FF7D00028F5D02022002106A891
:106C900024F02AFE06A81AF05DF910B16FF09204F4
:106CA000EBE714F47C1FC4F305452AD0102DE2D87D
:106CB000199B9D4233D81D4B24F47E149C4231D144
:106CC000002302AECDE90233CDE9043352465B46E0
:106CD0004946009606A8FEF707FD044698B92A46DD
:106CE0003146404624F00AFE234633550134102C29
:106CF000FBD100243D6006A81AF036F90028BCD06C
:106D0000CCE71025D4E7212806D0012814BF6FF066
:106D100092046FF08B04EEE76FF08604EBE76FF000
:106D20008904AAE76FF08504A7E700BF0002C0034B
:106D300070B50E461446054610B96FF0860070BD5A
:106D40000029FAD03822002124F0CEFD094B24F48A
:106D50007E129A420AD13388B3F5105F06D1C4F38C
:106D60000543102BE9D800202C60E8E76FF0850080
:106D7000E5E700BF0002C003F0B50F4616461D460A
:106D800004468BB088B302B97BBB2022002102A845
:106D900024F0AAFD02A81AF0DDF820B16FF09204E9
:106DA00020460BB0F0BD2368114A23F47E139342B2
:106DB00015D135B9002402A81AF0D6F80028EFD072
:106DC000ECE733463A46009502A9201DFEF76EFD1A
:106DD000012807D00028EDD06FF09204EBE76FF0A8
:106DE0008804E8E76FF08B04E5E76FF08604D7E7E7
:106DF0000002C0032DE9F0418CB0884616461D46BE
:106E00000446129F002840D0002A3ED0002B3CD0E0
:106E1000002F3AD0102B036828BF102513F47C1FD5
:106E2000C3F3054202D0954228BF15461A4A23F4FF
:106E30007E1393422CD12022002104A824F054FD7B
:106E4000002304A8CDE90033CDE902331AF082F81B
:106E500040B96B46424604A9201DFEF7A3FC30B1A1
:106E600000233B606FF092000CB0BDE8F08104A8F5
:106E70001AF07AF804460028F2D12A4669463046CC
:106E800024F03CFD20463D60EEE76FF08600EBE726
:106E90006FF08800E8E700BF0002C0032DE9F04171
:106EA0000E4617469846044600B3F9B1F2B198224F
:106EB000002124F019FD3146069A04F16000FFF725
:106EC00037FF0546A0B92346424639463046FFF70C
:106ED000B7FD054660B97288D208A2F110011029E9
:106EE000E26503D80A4BCB40DB0704D46FF086057C
:106EF0002846BDE8F08163691C329342F6D304F161
:106F000020031846216924F0F9FC2061F0E700BF56
:106F1000010101000023C36001F138030361202354
:106F20000A6843618B6D0B4922F47E128A424360EA
:106F300003D001F580718A4208D1102B01D0182BA3
:106F400002D1036000207047202BFAD06FF0880038
:106F5000704700BF0001C00307B5094B18689A8845
:106F60009B7900906846ADF804208DF80630FDF757
:106F700075FE0C20FDF7AAFE002003B05DF804FBAF
:106F8000C4DA030813B50024064A6846536F43F079
:106F90000103536700948DF80440FDF79DFD2046E2
:106FA00002B010BD0040005030B58BB06C46174D9C
:106FB0000FCD0FC40FCD0FC495E8030084E8030084
:106FC000134BD3F84C2112031CD5A3F5FE431C88A8
:106FD0004FF6FF739C4208BF64248DF81940FDF7FB
:106FE00079F9204480F308008DF818000948FCF76F
:106FF0009BFA6846FDF772F83220FDF7E5F90020AC
:107000000BB030BDD3F85041E4B2E6E7CCDA030868
:107010000080E00FC017530230B5094D87B001ACB6
:107020000FCD0FC42B6801A8236025238DF80530F0
:10703000FDF786F93220FDF7C1F9002007B030BD19
:10704000F4DA03086FF00403502110B50A480B4C22
:1070500013F0800F03F1010207D123444C2A83F877
:1070600000131346F4D1002010BD03F00F03043BBE
:10707000034419761346EBE700ED00E000E100E081
:1070800038B500F087FF0446F0B901F0F3F901F0DC
:107090006DF84FF4167343430C4A03F5742303F25F
:1070A0003F23B3FBF2F30A21094A0A4813600A4D51
:1070B0000268013911F0FF0145F8043BF9D11A4487
:1070C00003EBC30313440360204638BD40420F0066
:1070D000541A0020241A0020281A0020012208B582
:1070E000034B1A701AF0A8FF024B186008BD00BFCE
:1070F00047280020201A002010B501F037F8044678
:1071000019F0C0FD844207D91AF0A4FF20B1012272
:10711000024B1860024B1A7010BD00BF201A0020ED
:1071200047280020F8B51C4C2378D3B11AF084FF0F
:107130001A4B1B4D1B68C01A012838BF012028605C
:1071400001F014F84FF416735843164B00F57420F1
:1071500000F23F20B0FBF3F02968814202D90023FE
:107160002370F8BD104D114E2B78114F56F8232087
:1071700046F82310501A0A213A680133121A3A606D
:107180000932B2FBF1F20B48DBB20260B3FBF1F261
:1071900001FB12332B70E2E747280020201A002061
:1071A000501A002040420F0048280020281A0020D2
:1071B000241A0020541A0020014B1868704700BFA1
:1071C000541A002020234FF4801204204FF48051E1
:1071D00030B50C4D0C4C85F82C330C4B5A660C4BCF
:1071E00003F500525467506714671067C5F884119F
:1071F00069600B445C6758674FF000709062996259
:1072000030BD00BF00E100E0010000A00090005090
:107210000040005A044B9A6D12F0050F02D100286D
:10722000F9D17047012070470040005A164B10B545
:107230001C6F14F0040111D0144A116708219162E7
:107240009B6DDA0701D4FFF757FF00F0DDFB00F07C
:10725000BDFB012001F0BEF81AF0FEFEE30706D5E3
:1072600001220A4B1A67FFF75DFF00F0AFFB14F035
:1072700000521CBF054B1A67002CBEBF4FF00042E6
:10728000024B1A6710BD00BF0040005A0060005A50
:10729000BFF35F8F074B5A6A22F480325A62D3F8E9
:1072A000942022F00102C3F89420BFF34F8FBFF364
:1072B0006F8F704700ED00E070B52948294CFFF74B
:1072C000E7FF8442284D294919D1D5F8C03023F071
:1072D000FF0343F0A003C5F8C0304FF080430A68B5
:1072E000214D234EC5F8982043F00103013284421A
:1072F000C5F89C60C5F8A0300A601ED00DE0D5F836
:10730000C02020F01F03203B22F0FF0242F0A00229
:10731000B3F1005FC5F8C020E1D2164B0A681248ED
:1073200023F01F0343F00303C0F89820C0F89C30FB
:10733000114B0132C0F8A0300A60BFF35F8F052205
:10734000094BC3F894205A6A42F480325A62BFF360
:107350004F8FBFF36F8FBFF34F8FBFF36F8F70BD32
:10736000340D0020E00E002000ED00E0581A00204F
:1073700003000020FF0E0020E1FFFF3FF8B5144698
:10738000FFF786FF1F2C27D90027C2062A4D1CBFF6
:1073900020F01F0020302A68CB06284B18BF21F0B0
:1073A0001F01FCB2A2422BD8D3F8C04020F01F002E
:1073B00024F47F4444F4807421F01F01C3F8C040DA
:1073C00040F00300C3F8982041F003010132C3F8F4
:1073D0009C00C3F8A0102A600020BFF35F8F052235
:1073E000164BC3F894205A6A42F480325A62BFF3B3
:1073F0004F8FBFF36F8FBFF34F8FBFF36F8FF8BD0A
:10740000C3F89840D3F89C40D3F8A06024F01F0440
:10741000A04226F01F0601D1B142DDD0B04201D812
:10742000A14207D2D3F89840013724F0FF04C3F8F3
:107430009840B6E72820D0E7581A002000ED00E079
:10744000BFF34F8F0549064BCA6802F4E06213434D
:10745000CB60BFF34F8F00BFFDE700BF00ED00E042
:107460000400FA05054B1A782AB95B78002B0CBF8B
:107470000320022070470120704700BF53280020DE
:107480000329F8B598BF124B05460E468CBF002461
:107490005C5C032805D8DFE800F002080B0E44F01E
:1074A00002040C4B1F684FB9F8BD44F00804F8E71C
:1074B00044F02004F5E744F08004F2E77B681A68A2
:1074C000144203D0314628465B6898473F68EAE794
:1074D00008DB0308881A002038B5104D2B78ABB1B3
:1074E0000F4C23781BB100F0CFFB0023237000204A
:1074F00000F0F2FB0B4C50B100F0F8FB002301212F
:1075000020782B70FFF7BCFF0123237038BD0122C8
:10751000054B1A702278054B1A70F7E74E280020A9
:107520004C280020552800204F28002050280020FB
:1075300010B519F01EFC064B04461B781BB1BDE8C4
:10754000104019F01ABCFFF7C7FF2046F7E700BF4D
:107550004B280020094A137830B101331370084BCF
:107560001B78012B03D87047013B13707047054B04
:107570001B780BB9FFF7B0BF704700BF532800203E
:10758000552800204F28002070B519F0F2FB134E4B
:1075900005463378ABB900F0FDFC044620B128461F
:1075A00019F0EBFB204670BD00F04CFF0C4819F0C1
:1075B0006CFB01F00BF80B4B1C6000F0D7FD0A4B85
:1075C000186000F055FA1AF0AEFC084B0024186061
:1075D00001232846337019F0D0FBE3E7562800203A
:1075E000881A00205C1A0020841A0020601A0020EB
:1075F0002DE9F843284A0138135C39B1274F01338C
:1076000039781354012904D8BDE8F883013B135499
:10761000FAE7FFF727FF0128044635D819F0A9FB40
:10762000DFF88480054698F8003013B31C4E337899
:107630001BB9012232701B4A1370DFF8709099F861
:10764000003023B100F020FB002389F800302846E9
:1076500019F093FB012000F03FFB19F08AFB33780F
:1076600005461BB100F042FB00233370002388F86D
:107670000030284619F081FB3878A042C4D021465A
:10768000FFF7FEFE3C70BFE70329F5D10228F3D1D6
:107690001AF04DFCF0E700BF5328002055280020C9
:1076A0004B2800204F2800204E2800204C28002086
:1076B00010B5044619F05DFB002C0CBFFF21012121
:1076C000064A13780B44DBB21370B3FA83F3BDE8B8
:1076D0001040034A5B09137019F04FBB5228002079
:1076E0005128002038B519F044FB094B05461B789A
:1076F000012B04D819F041FB0024204638BD054B6E
:107700001C6800F04DFB0444284619F036FBF4E7F2
:10771000552800205C1A002038B54160044619F055
:1077200028FB05462146044819F0B2FA2846BDE870
:10773000384019F022BB00BF881A0020054B1B6897
:107740005843054B00F5742000F23F20B0FBF3F0E6
:10775000704700BF841A002040420F002DE9F04F0F
:1077600085B0EFF3108772B6AFF3008019F02EFAF0
:1077700000286FD0804EDFF82C82337823B10020B0
:10778000FFF7E8FE00233370FFF76CFE0446002885
:1077900067D0841EE4B2012C6AD9FFF763FE01288A
:1077A0000546764CDFF8009200F28C802078854206
:1077B00040F0C680207800F0DDFA99F8003013B16F
:1077C0006F4B1B782370AFF3008007B962B6EFF3FD
:1077D000108772B66B4B1A7852B100221A70684B40
:1077E00020781B78984203D101212170FFF748FED1
:1077F000654800F009FC19F0F8F905460028BCD1ED
:10780000624BDFF89481187098F80030ABB189F8BA
:107810000000DFF88C9199F800301BB100F034FAC9
:1078200089F80050002000F057FA002800F09B80F3
:1078300000F05CFA002388F80030337823B1002090
:10784000FFF788FE0023337000212078FFF718FE31
:1078500000232370AFF3008007B962B605B0BDE81E
:10786000F08F3378002B98D0FFF774FE347094E7D4
:10787000002003A900F01CFC044600288DD1D8F894
:107880000030039A9A4205D80120FFF763FE0123D6
:10789000337082E73E4B1D6800F082FA039B05447B
:1078A0009D42F1D200F092FA8200039942F0020266
:1078B00092B2CDE900422346364A491B32481AF0BB
:1078C00037FB6AE7344BDFF8C4A093F800B0BBF194
:1078D000000F25D100F056F92078854230D19AF872
:1078E00000307BB92C4D2B78002B7FF463AF2B4BF2
:1078F0001B7823B900F0C2F90122294B1A70012329
:107900002B7057E7022DEDD18AF800B015E02378EF
:10791000022B25D100238AF8003023F098FC1FE0C9
:10792000207885420CD19AF80030002B3FF442AF0A
:10793000022DD7D100238AF8003023F088FCD1E74C
:107940000023DFF848A08AF8003099F8003013B916
:107950002946FFF795FD9AF800302570002BD6D107
:10796000012DBFD826E7012000F004FA07B962B65E
:10797000EFF3108772B655E74D28002055280020F8
:107980005028002049280020641A00205128002097
:107990005C1A0020317501084E2800205228002072
:1079A0004C280020601A00204F28002010B519F044
:1079B000E0F90022044B1C781A7019F0DEF900F08F
:1079C000FDFC2043C0B210BD4A28002010B5094B71
:1079D0001B786BB1084C237853B100F087F9002372
:1079E000064A237013700123054A1370054A137069
:1079F00010BD00BF552800204F2800204E28002031
:107A00004A28002049280020034B1B7813B101228B
:107A1000024B1A70704700BF552800204F280020E5
:107A200073B5114E0446337883420FD04FF4007380
:107A30000E4DADF8043058B101A8FDF705F840200F
:107A4000FFF77CFE2B68181A2860347002B070BDF6
:107A50008DF8050001A8FCF7F7FF4020FFF76EFE48
:107A60002B681844F0E700BF190D00208C1A002085
:107A700073B5002401A88DF80440FDF78FF8204667
:107A8000FFF7CEFF364A3749136F374803F0070335
:107A90000B60D2F80011354C01F0030101604FF486
:107AA00080103349032B48664FF40030486601F5D7
:107AB0009831896901F00200C1F34001217046D07C
:107AC000D2F8203103F00703991E4B424B41D2F804
:107AD0002811284D01F00701022908BF43F00103D6
